{
  "_format": "hh-sol-artifact-1",
  "contractName": "SettleyTicket",
  "sourceName": "contracts/Ticket.sol",
  "abi": [
    {
      "inputs": [],
      "stateMutability": "nonpayable",
      "type": "constructor"
    },
    {
      "inputs": [
        {
          "internalType": "address",
          "name": "sender",
          "type": "address"
        },
        {
          "internalType": "uint256",
          "name": "balance",
          "type": "uint256"
        },
        {
          "internalType": "uint256",
          "name": "needed",
          "type": "uint256"
        },
        {
          "internalType": "uint256",
          "name": "tokenId",
          "type": "uint256"
        }
      ],
      "name": "ERC1155InsufficientBalance",
      "type": "error"
    },
    {
      "inputs": [
        {
          "internalType": "address",
          "name": "approver",
          "type": "address"
        }
      ],
      "name": "ERC1155InvalidApprover",
      "type": "error"
    },
    {
      "inputs": [
        {
          "internalType": "uint256",
          "name": "idsLength",
          "type": "uint256"
        },
        {
          "internalType": "uint256",
          "name": "valuesLength",
          "type": "uint256"
        }
      ],
      "name": "ERC1155InvalidArrayLength",
      "type": "error"
    },
    {
      "inputs": [
        {
          "internalType": "address",
          "name": "operator",
          "type": "address"
        }
      ],
      "name": "ERC1155InvalidOperator",
      "type": "error"
    },
    {
      "inputs": [
        {
          "internalType": "address",
          "name": "receiver",
          "type": "address"
        }
      ],
      "name": "ERC1155InvalidReceiver",
      "type": "error"
    },
    {
      "inputs": [
        {
          "internalType": "address",
          "name": "sender",
          "type": "address"
        }
      ],
      "name": "ERC1155InvalidSender",
      "type": "error"
    },
    {
      "inputs": [
        {
          "internalType": "address",
          "name": "operator",
          "type": "address"
        },
        {
          "internalType": "address",
          "name": "owner",
          "type": "address"
        }
      ],
      "name": "ERC1155MissingApprovalForAll",
      "type": "error"
    },
    {
      "inputs": [
        {
          "internalType": "address",
          "name": "owner",
          "type": "address"
        }
      ],
      "name": "OwnableInvalidOwner",
      "type": "error"
    },
    {
      "inputs": [
        {
          "internalType": "address",
          "name": "account",
          "type": "address"
        }
      ],
      "name": "OwnableUnauthorizedAccount",
      "type": "error"
    },
    {
      "inputs": [
        {
          "internalType": "address",
          "name": "token",
          "type": "address"
        }
      ],
      "name": "SafeERC20FailedOperation",
      "type": "error"
    },
    {
      "anonymous": false,
      "inputs": [
        {
          "indexed": true,
          "internalType": "address",
          "name": "account",
          "type": "address"
        },
        {
          "indexed": true,
          "internalType": "address",
          "name": "operator",
          "type": "address"
        },
        {
          "indexed": false,
          "internalType": "bool",
          "name": "approved",
          "type": "bool"
        }
      ],
      "name": "ApprovalForAll",
      "type": "event"
    },
    {
      "anonymous": false,
      "inputs": [
        {
          "indexed": true,
          "internalType": "address",
          "name": "previousOwner",
          "type": "address"
        },
        {
          "indexed": true,
          "internalType": "address",
          "name": "newOwner",
          "type": "address"
        }
      ],
      "name": "OwnershipTransferred",
      "type": "event"
    },
    {
      "anonymous": false,
      "inputs": [
        {
          "indexed": true,
          "internalType": "uint256",
          "name": "tokenId",
          "type": "uint256"
        },
        {
          "indexed": true,
          "internalType": "address",
          "name": "recipient",
          "type": "address"
        },
        {
          "indexed": false,
          "internalType": "uint256",
          "name": "amount",
          "type": "uint256"
        },
        {
          "indexed": false,
          "internalType": "string",
          "name": "tokenURI",
          "type": "string"
        },
        {
          "indexed": false,
          "internalType": "address",
          "name": "stableCoin",
          "type": "address"
        },
        {
          "indexed": false,
          "internalType": "uint256",
          "name": "stableAmount",
          "type": "uint256"
        },
        {
          "indexed": false,
          "internalType": "uint256",
          "name": "blockNumber",
          "type": "uint256"
        }
      ],
      "name": "TokenMinted",
      "type": "event"
    },
    {
      "anonymous": false,
      "inputs": [
        {
          "indexed": true,
          "internalType": "address",
          "name": "operator",
          "type": "address"
        },
        {
          "indexed": true,
          "internalType": "address",
          "name": "from",
          "type": "address"
        },
        {
          "indexed": true,
          "internalType": "address",
          "name": "to",
          "type": "address"
        },
        {
          "indexed": false,
          "internalType": "uint256[]",
          "name": "ids",
          "type": "uint256[]"
        },
        {
          "indexed": false,
          "internalType": "uint256[]",
          "name": "values",
          "type": "uint256[]"
        }
      ],
      "name": "TransferBatch",
      "type": "event"
    },
    {
      "anonymous": false,
      "inputs": [
        {
          "indexed": true,
          "internalType": "address",
          "name": "operator",
          "type": "address"
        },
        {
          "indexed": true,
          "internalType": "address",
          "name": "from",
          "type": "address"
        },
        {
          "indexed": true,
          "internalType": "address",
          "name": "to",
          "type": "address"
        },
        {
          "indexed": false,
          "internalType": "uint256",
          "name": "id",
          "type": "uint256"
        },
        {
          "indexed": false,
          "internalType": "uint256",
          "name": "value",
          "type": "uint256"
        }
      ],
      "name": "TransferSingle",
      "type": "event"
    },
    {
      "anonymous": false,
      "inputs": [
        {
          "indexed": false,
          "internalType": "string",
          "name": "value",
          "type": "string"
        },
        {
          "indexed": true,
          "internalType": "uint256",
          "name": "id",
          "type": "uint256"
        }
      ],
      "name": "URI",
      "type": "event"
    },
    {
      "inputs": [
        {
          "internalType": "address",
          "name": "",
          "type": "address"
        }
      ],
      "name": "acceptedStables",
      "outputs": [
        {
          "internalType": "bool",
          "name": "",
          "type": "bool"
        }
      ],
      "stateMutability": "view",
      "type": "function"
    },
    {
      "inputs": [
        {
          "internalType": "address",
          "name": "account",
          "type": "address"
        },
        {
          "internalType": "uint256",
          "name": "id",
          "type": "uint256"
        }
      ],
      "name": "balanceOf",
      "outputs": [
        {
          "internalType": "uint256",
          "name": "",
          "type": "uint256"
        }
      ],
      "stateMutability": "view",
      "type": "function"
    },
    {
      "inputs": [
        {
          "internalType": "address[]",
          "name": "accounts",
          "type": "address[]"
        },
        {
          "internalType": "uint256[]",
          "name": "ids",
          "type": "uint256[]"
        }
      ],
      "name": "balanceOfBatch",
      "outputs": [
        {
          "internalType": "uint256[]",
          "name": "",
          "type": "uint256[]"
        }
      ],
      "stateMutability": "view",
      "type": "function"
    },
    {
      "inputs": [
        {
          "internalType": "address",
          "name": "",
          "type": "address"
        },
        {
          "internalType": "address",
          "name": "",
          "type": "address"
        }
      ],
      "name": "buyersBalance",
      "outputs": [
        {
          "internalType": "uint256",
          "name": "",
          "type": "uint256"
        }
      ],
      "stateMutability": "view",
      "type": "function"
    },
    {
      "inputs": [],
      "name": "costPerTicket18Decimals",
      "outputs": [
        {
          "internalType": "uint256",
          "name": "",
          "type": "uint256"
        }
      ],
      "stateMutability": "view",
      "type": "function"
    },
    {
      "inputs": [],
      "name": "costPerTicket6Decimals",
      "outputs": [
        {
          "internalType": "uint256",
          "name": "",
          "type": "uint256"
        }
      ],
      "stateMutability": "view",
      "type": "function"
    },
    {
      "inputs": [
        {
          "internalType": "address",
          "name": "_stable",
          "type": "address"
        },
        {
          "internalType": "uint256",
          "name": "numberOfTickets",
          "type": "uint256"
        }
      ],
      "name": "estimateTotalCost",
      "outputs": [
        {
          "internalType": "uint256",
          "name": "",
          "type": "uint256"
        }
      ],
      "stateMutability": "view",
      "type": "function"
    },
    {
      "inputs": [
        {
          "internalType": "uint256",
          "name": "id",
          "type": "uint256"
        }
      ],
      "name": "exists",
      "outputs": [
        {
          "internalType": "bool",
          "name": "",
          "type": "bool"
        }
      ],
      "stateMutability": "view",
      "type": "function"
    },
    {
      "inputs": [],
      "name": "getBaseURI",
      "outputs": [
        {
          "internalType": "string",
          "name": "",
          "type": "string"
        }
      ],
      "stateMutability": "view",
      "type": "function"
    },
    {
      "inputs": [
        {
          "internalType": "address",
          "name": "account",
          "type": "address"
        },
        {
          "internalType": "address",
          "name": "operator",
          "type": "address"
        }
      ],
      "name": "isApprovedForAll",
      "outputs": [
        {
          "internalType": "bool",
          "name": "",
          "type": "bool"
        }
      ],
      "stateMutability": "view",
      "type": "function"
    },
    {
      "inputs": [
        {
          "internalType": "address",
          "name": "_token",
          "type": "address"
        }
      ],
      "name": "isTokenAccepted",
      "outputs": [
        {
          "internalType": "bool",
          "name": "",
          "type": "bool"
        }
      ],
      "stateMutability": "view",
      "type": "function"
    },
    {
      "inputs": [
        {
          "internalType": "uint256",
          "name": "numberOfTickets",
          "type": "uint256"
        },
        {
          "internalType": "string",
          "name": "tokenURI",
          "type": "string"
        },
        {
          "internalType": "address",
          "name": "_stableCoin",
          "type": "address"
        }
      ],
      "name": "mint",
      "outputs": [
        {
          "internalType": "uint256",
          "name": "",
          "type": "uint256"
        }
      ],
      "stateMutability": "nonpayable",
      "type": "function"
    },
    {
      "inputs": [
        {
          "internalType": "address",
          "name": "recipient",
          "type": "address"
        },
        {
          "internalType": "uint256",
          "name": "tokenId",
          "type": "uint256"
        },
        {
          "internalType": "uint256",
          "name": "additionalAmount",
          "type": "uint256"
        }
      ],
      "name": "mintAdditional",
      "outputs": [],
      "stateMutability": "nonpayable",
      "type": "function"
    },
    {
      "inputs": [],
      "name": "mostRecentBlock",
      "outputs": [
        {
          "internalType": "uint256",
          "name": "",
          "type": "uint256"
        }
      ],
      "stateMutability": "view",
      "type": "function"
    },
    {
      "inputs": [],
      "name": "owner",
      "outputs": [
        {
          "internalType": "address",
          "name": "",
          "type": "address"
        }
      ],
      "stateMutability": "view",
      "type": "function"
    },
    {
      "inputs": [],
      "name": "receiverWallet",
      "outputs": [
        {
          "internalType": "address",
          "name": "",
          "type": "address"
        }
      ],
      "stateMutability": "view",
      "type": "function"
    },
    {
      "inputs": [],
      "name": "renounceOwnership",
      "outputs": [],
      "stateMutability": "nonpayable",
      "type": "function"
    },
    {
      "inputs": [
        {
          "internalType": "address",
          "name": "from",
          "type": "address"
        },
        {
          "internalType": "address",
          "name": "to",
          "type": "address"
        },
        {
          "internalType": "uint256[]",
          "name": "ids",
          "type": "uint256[]"
        },
        {
          "internalType": "uint256[]",
          "name": "values",
          "type": "uint256[]"
        },
        {
          "internalType": "bytes",
          "name": "data",
          "type": "bytes"
        }
      ],
      "name": "safeBatchTransferFrom",
      "outputs": [],
      "stateMutability": "nonpayable",
      "type": "function"
    },
    {
      "inputs": [
        {
          "internalType": "address",
          "name": "from",
          "type": "address"
        },
        {
          "internalType": "address",
          "name": "to",
          "type": "address"
        },
        {
          "internalType": "uint256",
          "name": "id",
          "type": "uint256"
        },
        {
          "internalType": "uint256",
          "name": "value",
          "type": "uint256"
        },
        {
          "internalType": "bytes",
          "name": "data",
          "type": "bytes"
        }
      ],
      "name": "safeTransferFrom",
      "outputs": [],
      "stateMutability": "nonpayable",
      "type": "function"
    },
    {
      "inputs": [
        {
          "internalType": "address",
          "name": "_stableCoin",
          "type": "address"
        },
        {
          "internalType": "bool",
          "name": "_status",
          "type": "bool"
        }
      ],
      "name": "setAcceptedStable",
      "outputs": [],
      "stateMutability": "nonpayable",
      "type": "function"
    },
    {
      "inputs": [
        {
          "internalType": "address",
          "name": "operator",
          "type": "address"
        },
        {
          "internalType": "bool",
          "name": "approved",
          "type": "bool"
        }
      ],
      "name": "setApprovalForAll",
      "outputs": [],
      "stateMutability": "nonpayable",
      "type": "function"
    },
    {
      "inputs": [
        {
          "internalType": "string",
          "name": "baseURI",
          "type": "string"
        }
      ],
      "name": "setBaseURI",
      "outputs": [],
      "stateMutability": "nonpayable",
      "type": "function"
    },
    {
      "inputs": [
        {
          "internalType": "uint256",
          "name": "_amount",
          "type": "uint256"
        }
      ],
      "name": "setCostPerTokenFor18Decimals",
      "outputs": [],
      "stateMutability": "nonpayable",
      "type": "function"
    },
    {
      "inputs": [
        {
          "internalType": "uint256",
          "name": "_amount",
          "type": "uint256"
        }
      ],
      "name": "setCostPerTokenFor6Decimals",
      "outputs": [],
      "stateMutability": "nonpayable",
      "type": "function"
    },
    {
      "inputs": [
        {
          "internalType": "address",
          "name": "_wallet",
          "type": "address"
        }
      ],
      "name": "setReceiverWallet",
      "outputs": [],
      "stateMutability": "nonpayable",
      "type": "function"
    },
    {
      "inputs": [],
      "name": "startingBlock",
      "outputs": [
        {
          "internalType": "uint256",
          "name": "",
          "type": "uint256"
        }
      ],
      "stateMutability": "view",
      "type": "function"
    },
    {
      "inputs": [
        {
          "internalType": "bytes4",
          "name": "interfaceId",
          "type": "bytes4"
        }
      ],
      "name": "supportsInterface",
      "outputs": [
        {
          "internalType": "bool",
          "name": "",
          "type": "bool"
        }
      ],
      "stateMutability": "view",
      "type": "function"
    },
    {
      "inputs": [],
      "name": "tokenCounter",
      "outputs": [
        {
          "internalType": "uint256",
          "name": "",
          "type": "uint256"
        }
      ],
      "stateMutability": "view",
      "type": "function"
    },
    {
      "inputs": [],
      "name": "totalSupply",
      "outputs": [
        {
          "internalType": "uint256",
          "name": "",
          "type": "uint256"
        }
      ],
      "stateMutability": "view",
      "type": "function"
    },
    {
      "inputs": [
        {
          "internalType": "uint256",
          "name": "id",
          "type": "uint256"
        }
      ],
      "name": "totalSupply",
      "outputs": [
        {
          "internalType": "uint256",
          "name": "",
          "type": "uint256"
        }
      ],
      "stateMutability": "view",
      "type": "function"
    },
    {
      "inputs": [
        {
          "internalType": "address",
          "name": "newOwner",
          "type": "address"
        }
      ],
      "name": "transferOwnership",
      "outputs": [],
      "stateMutability": "nonpayable",
      "type": "function"
    },
    {
      "inputs": [
        {
          "internalType": "uint256",
          "name": "tokenId",
          "type": "uint256"
        }
      ],
      "name": "uri",
      "outputs": [
        {
          "internalType": "string",
          "name": "",
          "type": "string"
        }
      ],
      "stateMutability": "view",
      "type": "function"
    }
  ],
  "bytecode": "0x608060405260405180602001604052806000815250600390816100229190610448565b5034801561002f57600080fd5b50336040518060400160405280601d81526020017f68747470733a2f2f6578616d706c652e636f6d2f6d657461646174612f0000008152506100768161011f60201b60201c565b50600073ffffffffffffffffffffffffffffffffffffffff168173ffffffffffffffffffffffffffffffffffffffff16036100e95760006040517f1e4fbdf70000000000000000000000000000000000000000000000000000000081526004016100e0919061055b565b60405180910390fd5b6100f88161013260201b60201c565b506000600881905550620186a0600d8190555067016345785d8a0000600e81905550610576565b806002908161012e9190610448565b5050565b6000600760009054906101000a900473ffffffffffffffffffffffffffffffffffffffff16905081600760006101000a81548173ffffffffffffffffffffffffffffffffffffffff021916908373ffffffffffffffffffffffffffffffffffffffff1602179055508173ffffffffffffffffffffffffffffffffffffffff168173ffffffffffffffffffffffffffffffffffffffff167f8be0079c531659141344cd1fd0a4f28419497f9722a3daafe3b4186f6b6457e060405160405180910390a35050565b600081519050919050565b7f4e487b7100000000000000000000000000000000000000000000000000000000600052604160045260246000fd5b7f4e487b7100000000000000000000000000000000000000000000000000000000600052602260045260246000fd5b6000600282049050600182168061027957607f821691505b60208210810361028c5761028b610232565b5b50919050565b60008190508160005260206000209050919050565b60006020601f8301049050919050565b600082821b905092915050565b6000600883026102f47fffffffffffffffffffffffffffffffffffffffffffffffffffffffffffffffff826102b7565b6102fe86836102b7565b95508019841693508086168417925050509392505050565b6000819050919050565b6000819050919050565b600061034561034061033b84610316565b610320565b610316565b9050919050565b6000819050919050565b61035f8361032a565b61037361036b8261034c565b8484546102c4565b825550505050565b600090565b61038861037b565b610393818484610356565b505050565b5b818110156103b7576103ac600082610380565b600181019050610399565b5050565b601f8211156103fc576103cd81610292565b6103d6846102a7565b810160208510156103e5578190505b6103f96103f1856102a7565b830182610398565b50505b505050565b600082821c905092915050565b600061041f60001984600802610401565b1980831691505092915050565b6000610438838361040e565b9150826002028217905092915050565b610451826101f8565b67ffffffffffffffff81111561046a57610469610203565b5b6104748254610261565b61047f8282856103bb565b600060209050601f8311600181146104b257600084156104a0578287015190505b6104aa858261042c565b865550610512565b601f1984166104c086610292565b60005b828110156104e8578489015182556001820191506020850194506020810190506104c3565b868310156105055784890151610501601f89168261040e565b8355505b6001600288020188555050505b505050505050565b600073ffffffffffffffffffffffffffffffffffffffff82169050919050565b60006105458261051a565b9050919050565b6105558161053a565b82525050565b6000602082019050610570600083018461054c565b92915050565b613d65806105856000396000f3fe608060405234801561001057600080fd5b50600436106101ef5760003560e01c8063677342ab1161010f578063bc9014ae116100a2578063d91c98d311610071578063d91c98d3146105de578063e985e9c5146105fc578063f242432a1461062c578063f2fde38b14610648576101ef565b8063bc9014ae14610542578063bd85b03914610560578063d082e38114610590578063d6f5936e146105ae576101ef565b80638b69d84b116100de5780638b69d84b146104d05780638da5cb5b146104ec5780639a839fd11461050a578063a22cb46514610526576101ef565b8063677342ab1461046e578063714c53981461048c578063715018a6146104aa5780638502ceb0146104b4576101ef565b80632eb2c2d6116101875780634f558e79116101565780634f558e79146103d457806355f804b3146104045780635bcbbcd2146104205780636084747f14610450576101ef565b80632eb2c2d61461033a57806336391d08146103565780634e1273f4146103745780634ea4fe5f146103a4576101ef565b806318160ddd116101c357806318160ddd146102b45780631ac429b2146102d25780631e960a481461030257806322912cb21461031e576101ef565b8062fdd58e146101f457806301ffc9a7146102245780630560bd96146102545780630e89341c14610284575b600080fd5b61020e60048036038101906102099190612757565b610664565b60405161021b91906127a6565b60405180910390f35b61023e60048036038101906102399190612819565b6106be565b60405161024b9190612861565b60405180910390f35b61026e6004803603810190610269919061287c565b6107a0565b60405161027b9190612861565b60405180910390f35b61029e600480360381019061029991906128a9565b6107f6565b6040516102ab9190612966565b60405180910390f35b6102bc610808565b6040516102c991906127a6565b60405180910390f35b6102ec60048036038101906102e79190612abd565b610812565b6040516102f991906127a6565b60405180910390f35b61031c600480360381019061031791906128a9565b610af9565b005b6103386004803603810190610333919061287c565b610b03565b005b610354600480360381019061034f9190612c95565b610b4f565b005b61035e610bf7565b60405161036b91906127a6565b60405180910390f35b61038e60048036038101906103899190612e27565b610bfd565b60405161039b9190612f5d565b60405180910390f35b6103be60048036038101906103b99190612757565b610d06565b6040516103cb91906127a6565b60405180910390f35b6103ee60048036038101906103e991906128a9565b610e2f565b6040516103fb9190612861565b60405180910390f35b61041e60048036038101906104199190612f7f565b610e43565b005b61043a6004803603810190610435919061287c565b610e5e565b6040516104479190612861565b60405180910390f35b610458610e7e565b60405161046591906127a6565b60405180910390f35b610476610e84565b6040516104839190612fd7565b60405180910390f35b610494610eaa565b6040516104a19190612966565b60405180910390f35b6104b2610f3c565b005b6104ce60048036038101906104c991906128a9565b610f50565b005b6104ea60048036038101906104e5919061301e565b610f5a565b005b6104f4610fbd565b6040516105019190612fd7565b60405180910390f35b610524600480360381019061051f919061305e565b610fe7565b005b610540600480360381019061053b919061301e565b61109a565b005b61054a6110b0565b60405161055791906127a6565b60405180910390f35b61057a600480360381019061057591906128a9565b6110b6565b60405161058791906127a6565b60405180910390f35b6105986110d3565b6040516105a591906127a6565b60405180910390f35b6105c860048036038101906105c391906130b1565b6110d9565b6040516105d591906127a6565b60405180910390f35b6105e66110fe565b6040516105f391906127a6565b60405180910390f35b610616600480360381019061061191906130b1565b611104565b6040516106239190612861565b60405180910390f35b610646600480360381019061064191906130f1565b611198565b005b610662600480360381019061065d919061287c565b611240565b005b600080600083815260200190815260200160002060008473ffffffffffffffffffffffffffffffffffffffff1673ffffffffffffffffffffffffffffffffffffffff16815260200190815260200160002054905092915050565b60007fd9b67a26000000000000000000000000000000000000000000000000000000007bffffffffffffffffffffffffffffffffffffffffffffffffffffffff1916827bffffffffffffffffffffffffffffffffffffffffffffffffffffffff1916148061078957507f0e89341c000000000000000000000000000000000000000000000000000000007bffffffffffffffffffffffffffffffffffffffffffffffffffffffff1916827bffffffffffffffffffffffffffffffffffffffffffffffffffffffff1916145b806107995750610798826112c6565b5b9050919050565b6000600f60008373ffffffffffffffffffffffffffffffffffffffff1673ffffffffffffffffffffffffffffffffffffffff16815260200190815260200160002060009054906101000a900460ff169050919050565b606061080182611330565b9050919050565b6000600654905090565b60008073ffffffffffffffffffffffffffffffffffffffff163373ffffffffffffffffffffffffffffffffffffffff1614158061087c5750600073ffffffffffffffffffffffffffffffffffffffff168273ffffffffffffffffffffffffffffffffffffffff1614155b6108bb576040517f08c379a00000000000000000000000000000000000000000000000000000000081526004016108b2906131d4565b60405180910390fd5b6000600e541415806108d057506000600d5414155b61090f576040517f08c379a000000000000000000000000000000000000000000000000000000000815260040161090690613240565b60405180910390fd5b600061091b8386610d06565b905060008111610960576040517f08c379a0000000000000000000000000000000000000000000000000000000008152600401610957906132d2565b60405180910390fd5b600f60008473ffffffffffffffffffffffffffffffffffffffff1673ffffffffffffffffffffffffffffffffffffffff16815260200190815260200160002060009054906101000a900460ff166109ec576040517f08c379a00000000000000000000000000000000000000000000000000000000081526004016109e39061333e565b60405180910390fd5b60008511610a2f576040517f08c379a0000000000000000000000000000000000000000000000000000000008152600401610a26906133d0565b60405180910390fd5b60086000815480929190610a429061341f565b9190505550600160085403610a595743600b819055505b6000600854905043600c81905550610a718186611415565b610a7b848361147a565b610a96338288604051806020016040528060008152506115df565b3373ffffffffffffffffffffffffffffffffffffffff16817fb8f84b0803978ea4c5e2387291354ee79e1b68412aaeca55d844bcb06c2b284b8888888743604051610ae5959493929190613467565b60405180910390a380925050509392505050565b80600e8190555050565b610b0b611678565b80600a60006101000a81548173ffffffffffffffffffffffffffffffffffffffff021916908373ffffffffffffffffffffffffffffffffffffffff16021790555050565b6000610b596116ff565b90508073ffffffffffffffffffffffffffffffffffffffff168673ffffffffffffffffffffffffffffffffffffffff1614158015610b9e5750610b9c8682611104565b155b15610be25780866040517fe237d922000000000000000000000000000000000000000000000000000000008152600401610bd99291906134c1565b60405180910390fd5b610bef8686868686611707565b505050505050565b600e5481565b60608151835114610c4957815183516040517f5b059991000000000000000000000000000000000000000000000000000000008152600401610c409291906134ea565b60405180910390fd5b6000835167ffffffffffffffff811115610c6657610c65612992565b5b604051908082528060200260200182016040528015610c945781602001602082028036833780820191505090505b50905060005b8451811015610cfb57610cd1610cb982876117ff90919063ffffffff16565b610ccc838761181390919063ffffffff16565b610664565b828281518110610ce457610ce3613513565b5b602002602001018181525050806001019050610c9a565b508091505092915050565b600060068373ffffffffffffffffffffffffffffffffffffffff1663313ce5676040518163ffffffff1660e01b8152600401602060405180830381865afa158015610d55573d6000803e3d6000fd5b505050506040513d601f19601f82011682018060405250810190610d79919061357b565b60ff1603610d965781600d54610d8f91906135a8565b9050610e29565b60128373ffffffffffffffffffffffffffffffffffffffff1663313ce5676040518163ffffffff1660e01b8152600401602060405180830381865afa158015610de3573d6000803e3d6000fd5b505050506040513d601f19601f82011682018060405250810190610e07919061357b565b60ff1603610e245781600e54610e1d91906135a8565b9050610e29565b600090505b92915050565b600080610e3b836110b6565b119050919050565b610e4b611678565b8060099081610e5a91906137f6565b5050565b600f6020528060005260406000206000915054906101000a900460ff1681565b600c5481565b600a60009054906101000a900473ffffffffffffffffffffffffffffffffffffffff1681565b606060098054610eb990613619565b80601f0160208091040260200160405190810160405280929190818152602001828054610ee590613619565b8015610f325780601f10610f0757610100808354040283529160200191610f32565b820191906000526020600020905b815481529060010190602001808311610f1557829003601f168201915b5050505050905090565b610f44611678565b610f4e6000611827565b565b80600d8190555050565b610f62611678565b80600f60008473ffffffffffffffffffffffffffffffffffffffff1673ffffffffffffffffffffffffffffffffffffffff16815260200190815260200160002060006101000a81548160ff0219169083151502179055505050565b6000600760009054906101000a900473ffffffffffffffffffffffffffffffffffffffff16905090565b610fef611678565b610ff882610e2f565b611037576040517f08c379a000000000000000000000000000000000000000000000000000000000815260040161102e90613914565b60405180910390fd5b6000811161107a576040517f08c379a000000000000000000000000000000000000000000000000000000000815260040161107190613980565b60405180910390fd5b611095838383604051806020016040528060008152506115df565b505050565b6110ac6110a56116ff565b83836118ed565b5050565b600d5481565b600060056000838152602001908152602001600020549050919050565b60085481565b6010602052816000526040600020602052806000526040600020600091509150505481565b600b5481565b6000600160008473ffffffffffffffffffffffffffffffffffffffff1673ffffffffffffffffffffffffffffffffffffffff16815260200190815260200160002060008373ffffffffffffffffffffffffffffffffffffffff1673ffffffffffffffffffffffffffffffffffffffff16815260200190815260200160002060009054906101000a900460ff16905092915050565b60006111a26116ff565b90508073ffffffffffffffffffffffffffffffffffffffff168673ffffffffffffffffffffffffffffffffffffffff16141580156111e757506111e58682611104565b155b1561122b5780866040517fe237d9220000000000000000000000000000000000000000000000000000000081526004016112229291906134c1565b60405180910390fd5b6112388686868686611a5d565b505050505050565b611248611678565b600073ffffffffffffffffffffffffffffffffffffffff168173ffffffffffffffffffffffffffffffffffffffff16036112ba5760006040517f1e4fbdf70000000000000000000000000000000000000000000000000000000081526004016112b19190612fd7565b60405180910390fd5b6112c381611827565b50565b60007f01ffc9a7000000000000000000000000000000000000000000000000000000007bffffffffffffffffffffffffffffffffffffffffffffffffffffffff1916827bffffffffffffffffffffffffffffffffffffffffffffffffffffffff1916149050919050565b6060600060046000848152602001908152602001600020805461135290613619565b80601f016020809104026020016040519081016040528092919081815260200182805461137e90613619565b80156113cb5780601f106113a0576101008083540402835291602001916113cb565b820191906000526020600020905b8154815290600101906020018083116113ae57829003601f168201915b5050505050905060008151116113e9576113e483611b68565b61140d565b6003816040516020016113fd929190613a5f565b6040516020818303038152906040525b915050919050565b8060046000848152602001908152602001600020908161143591906137f6565b50817f6bb7ff708619ba0610cba295a58592e0451dee2622938c8755667688daf3529b611461846107f6565b60405161146e9190612966565b60405180910390a25050565b600073ffffffffffffffffffffffffffffffffffffffff16600a60009054906101000a900473ffffffffffffffffffffffffffffffffffffffff1673ffffffffffffffffffffffffffffffffffffffff160361150b576040517f08c379a000000000000000000000000000000000000000000000000000000000815260040161150290613acf565b60405180910390fd5b80601060008473ffffffffffffffffffffffffffffffffffffffff1673ffffffffffffffffffffffffffffffffffffffff16815260200190815260200160002060003373ffffffffffffffffffffffffffffffffffffffff1673ffffffffffffffffffffffffffffffffffffffff168152602001908152602001600020819055506115db33600a60009054906101000a900473ffffffffffffffffffffffffffffffffffffffff16838573ffffffffffffffffffffffffffffffffffffffff16611bfc909392919063ffffffff16565b5050565b600073ffffffffffffffffffffffffffffffffffffffff168473ffffffffffffffffffffffffffffffffffffffff16036116515760006040517f57f447ce0000000000000000000000000000000000000000000000000000000081526004016116489190612fd7565b60405180910390fd5b60008061165e8585611c7e565b91509150611670600087848487611cae565b505050505050565b6116806116ff565b73ffffffffffffffffffffffffffffffffffffffff1661169e610fbd565b73ffffffffffffffffffffffffffffffffffffffff16146116fd576116c16116ff565b6040517f118cdaa70000000000000000000000000000000000000000000000000000000081526004016116f49190612fd7565b60405180910390fd5b565b600033905090565b600073ffffffffffffffffffffffffffffffffffffffff168473ffffffffffffffffffffffffffffffffffffffff16036117795760006040517f57f447ce0000000000000000000000000000000000000000000000000000000081526004016117709190612fd7565b60405180910390fd5b600073ffffffffffffffffffffffffffffffffffffffff168573ffffffffffffffffffffffffffffffffffffffff16036117eb5760006040517f01a835140000000000000000000000000000000000000000000000000000000081526004016117e29190612fd7565b60405180910390fd5b6117f88585858585611cae565b5050505050565b600060208202602084010151905092915050565b600060208202602084010151905092915050565b6000600760009054906101000a900473ffffffffffffffffffffffffffffffffffffffff16905081600760006101000a81548173ffffffffffffffffffffffffffffffffffffffff021916908373ffffffffffffffffffffffffffffffffffffffff1602179055508173ffffffffffffffffffffffffffffffffffffffff168173ffffffffffffffffffffffffffffffffffffffff167f8be0079c531659141344cd1fd0a4f28419497f9722a3daafe3b4186f6b6457e060405160405180910390a35050565b600073ffffffffffffffffffffffffffffffffffffffff168273ffffffffffffffffffffffffffffffffffffffff160361195f5760006040517fced3e1000000000000000000000000000000000000000000000000000000000081526004016119569190612fd7565b60405180910390fd5b80600160008573ffffffffffffffffffffffffffffffffffffffff1673ffffffffffffffffffffffffffffffffffffffff16815260200190815260200160002060008473ffffffffffffffffffffffffffffffffffffffff1673ffffffffffffffffffffffffffffffffffffffff16815260200190815260200160002060006101000a81548160ff0219169083151502179055508173ffffffffffffffffffffffffffffffffffffffff168373ffffffffffffffffffffffffffffffffffffffff167f17307eab39ab6107e8899845ad3d59bd9653f200f220920489ca2b5937696c3183604051611a509190612861565b60405180910390a3505050565b600073ffffffffffffffffffffffffffffffffffffffff168473ffffffffffffffffffffffffffffffffffffffff1603611acf5760006040517f57f447ce000000000000000000000000000000000000000000000000000000008152600401611ac69190612fd7565b60405180910390fd5b600073ffffffffffffffffffffffffffffffffffffffff168573ffffffffffffffffffffffffffffffffffffffff1603611b415760006040517f01a83514000000000000000000000000000000000000000000000000000000008152600401611b389190612fd7565b60405180910390fd5b600080611b4e8585611c7e565b91509150611b5f8787848487611cae565b50505050505050565b606060028054611b7790613619565b80601f0160208091040260200160405190810160405280929190818152602001828054611ba390613619565b8015611bf05780601f10611bc557610100808354040283529160200191611bf0565b820191906000526020600020905b815481529060010190602001808311611bd357829003601f168201915b50505050509050919050565b611c78848573ffffffffffffffffffffffffffffffffffffffff166323b872dd868686604051602401611c3193929190613aef565b604051602081830303815290604052915060e01b6020820180517bffffffffffffffffffffffffffffffffffffffffffffffffffffffff8381831617835250505050611d60565b50505050565b60608060405191506001825283602083015260408201905060018152826020820152604081016040529250929050565b611cba85858585611e02565b600073ffffffffffffffffffffffffffffffffffffffff168473ffffffffffffffffffffffffffffffffffffffff1614611d59576000611cf86116ff565b90506001845103611d48576000611d1960008661181390919063ffffffff16565b90506000611d3160008661181390919063ffffffff16565b9050611d41838989858589611e14565b5050611d57565b611d56818787878787611fc8565b5b505b5050505050565b600080602060008451602086016000885af180611d83576040513d6000823e3d81fd5b3d925060005191505060008214611d9e576001811415611dba565b60008473ffffffffffffffffffffffffffffffffffffffff163b145b15611dfc57836040517f5274afe7000000000000000000000000000000000000000000000000000000008152600401611df39190612fd7565b60405180910390fd5b50505050565b611e0e8484848461217c565b50505050565b60008473ffffffffffffffffffffffffffffffffffffffff163b1115611fc0578373ffffffffffffffffffffffffffffffffffffffff1663f23a6e6187878686866040518663ffffffff1660e01b8152600401611e75959493929190613b7b565b6020604051808303816000875af1925050508015611eb157506040513d601f19601f82011682018060405250810190611eae9190613bea565b60015b611f35573d8060008114611ee1576040519150601f19603f3d011682016040523d82523d6000602084013e611ee6565b606091505b506000815103611f2d57846040517f57f447ce000000000000000000000000000000000000000000000000000000008152600401611f249190612fd7565b60405180910390fd5b805181602001fd5b63f23a6e6160e01b7bffffffffffffffffffffffffffffffffffffffffffffffffffffffff1916817bffffffffffffffffffffffffffffffffffffffffffffffffffffffff191614611fbe57846040517f57f447ce000000000000000000000000000000000000000000000000000000008152600401611fb59190612fd7565b60405180910390fd5b505b505050505050565b60008473ffffffffffffffffffffffffffffffffffffffff163b1115612174578373ffffffffffffffffffffffffffffffffffffffff1663bc197c8187878686866040518663ffffffff1660e01b8152600401612029959493929190613c17565b6020604051808303816000875af192505050801561206557506040513d601f19601f820116820180604052508101906120629190613bea565b60015b6120e9573d8060008114612095576040519150601f19603f3d011682016040523d82523d6000602084013e61209a565b606091505b5060008151036120e157846040517f57f447ce0000000000000000000000000000000000000000000000000000000081526004016120d89190612fd7565b60405180910390fd5b805181602001fd5b63bc197c8160e01b7bffffffffffffffffffffffffffffffffffffffffffffffffffffffff1916817bffffffffffffffffffffffffffffffffffffffffffffffffffffffff19161461217257846040517f57f447ce0000000000000000000000000000000000000000000000000000000081526004016121699190612fd7565b60405180910390fd5b505b505050505050565b61218884848484612307565b600073ffffffffffffffffffffffffffffffffffffffff168473ffffffffffffffffffffffffffffffffffffffff1603612252576000805b83518110156122365760006121de828561181390919063ffffffff16565b905080600560006121f8858961181390919063ffffffff16565b815260200190815260200160002060008282546122159190613c7f565b9250508190555080836122289190613c7f565b9250508060010190506121c0565b5080600660008282546122499190613c7f565b92505081905550505b600073ffffffffffffffffffffffffffffffffffffffff168373ffffffffffffffffffffffffffffffffffffffff1603612301576000805b83518110156122ee5760006122a8828561181390919063ffffffff16565b905080600560006122c2858961181390919063ffffffff16565b81526020019081526020016000206000828254039250508190555080830192505080600101905061228a565b5080600660008282540392505081905550505b50505050565b805182511461235157815181516040517f5b0599910000000000000000000000000000000000000000000000000000000081526004016123489291906134ea565b60405180910390fd5b600061235b6116ff565b905060005b835181101561256a57600061237e828661181390919063ffffffff16565b90506000612395838661181390919063ffffffff16565b9050600073ffffffffffffffffffffffffffffffffffffffff168873ffffffffffffffffffffffffffffffffffffffff16146124c257600080600084815260200190815260200160002060008a73ffffffffffffffffffffffffffffffffffffffff1673ffffffffffffffffffffffffffffffffffffffff1681526020019081526020016000205490508181101561246a57888183856040517f03dee4c50000000000000000000000000000000000000000000000000000000081526004016124619493929190613cb3565b60405180910390fd5b81810360008085815260200190815260200160002060008b73ffffffffffffffffffffffffffffffffffffffff1673ffffffffffffffffffffffffffffffffffffffff16815260200190815260200160002081905550505b600073ffffffffffffffffffffffffffffffffffffffff168773ffffffffffffffffffffffffffffffffffffffff161461255d578060008084815260200190815260200160002060008973ffffffffffffffffffffffffffffffffffffffff1673ffffffffffffffffffffffffffffffffffffffff16815260200190815260200160002060008282546125559190613c7f565b925050819055505b5050806001019050612360565b50600183510361262957600061258a60008561181390919063ffffffff16565b905060006125a260008561181390919063ffffffff16565b90508573ffffffffffffffffffffffffffffffffffffffff168773ffffffffffffffffffffffffffffffffffffffff168473ffffffffffffffffffffffffffffffffffffffff167fc3d58168c5ae7397731d063d5bbf3d657854427343f4c083240f7aacaa2d0f62858560405161261a9291906134ea565b60405180910390a450506126a8565b8373ffffffffffffffffffffffffffffffffffffffff168573ffffffffffffffffffffffffffffffffffffffff168273ffffffffffffffffffffffffffffffffffffffff167f4a39dc06d4c0dbc64b70af90fd698a233a518aa5d07e595d983b8c0526c8f7fb868660405161269f929190613cf8565b60405180910390a45b5050505050565b6000604051905090565b600080fd5b600080fd5b600073ffffffffffffffffffffffffffffffffffffffff82169050919050565b60006126ee826126c3565b9050919050565b6126fe816126e3565b811461270957600080fd5b50565b60008135905061271b816126f5565b92915050565b6000819050919050565b61273481612721565b811461273f57600080fd5b50565b6000813590506127518161272b565b92915050565b6000806040838503121561276e5761276d6126b9565b5b600061277c8582860161270c565b925050602061278d85828601612742565b9150509250929050565b6127a081612721565b82525050565b60006020820190506127bb6000830184612797565b92915050565b60007fffffffff0000000000000000000000000000000000000000000000000000000082169050919050565b6127f6816127c1565b811461280157600080fd5b50565b600081359050612813816127ed565b92915050565b60006020828403121561282f5761282e6126b9565b5b600061283d84828501612804565b91505092915050565b60008115159050919050565b61285b81612846565b82525050565b60006020820190506128766000830184612852565b92915050565b600060208284031215612892576128916126b9565b5b60006128a08482850161270c565b91505092915050565b6000602082840312156128bf576128be6126b9565b5b60006128cd84828501612742565b91505092915050565b600081519050919050565b600082825260208201905092915050565b60005b838110156129105780820151818401526020810190506128f5565b60008484015250505050565b6000601f19601f8301169050919050565b6000612938826128d6565b61294281856128e1565b93506129528185602086016128f2565b61295b8161291c565b840191505092915050565b60006020820190508181036000830152612980818461292d565b905092915050565b600080fd5b600080fd5b7f4e487b7100000000000000000000000000000000000000000000000000000000600052604160045260246000fd5b6129ca8261291c565b810181811067ffffffffffffffff821117156129e9576129e8612992565b5b80604052505050565b60006129fc6126af565b9050612a0882826129c1565b919050565b600067ffffffffffffffff821115612a2857612a27612992565b5b612a318261291c565b9050602081019050919050565b82818337600083830152505050565b6000612a60612a5b84612a0d565b6129f2565b905082815260208101848484011115612a7c57612a7b61298d565b5b612a87848285612a3e565b509392505050565b600082601f830112612aa457612aa3612988565b5b8135612ab4848260208601612a4d565b91505092915050565b600080600060608486031215612ad657612ad56126b9565b5b6000612ae486828701612742565b935050602084013567ffffffffffffffff811115612b0557612b046126be565b5b612b1186828701612a8f565b9250506040612b228682870161270c565b9150509250925092565b600067ffffffffffffffff821115612b4757612b46612992565b5b602082029050602081019050919050565b600080fd5b6000612b70612b6b84612b2c565b6129f2565b90508083825260208201905060208402830185811115612b9357612b92612b58565b5b835b81811015612bbc5780612ba88882612742565b845260208401935050602081019050612b95565b5050509392505050565b600082601f830112612bdb57612bda612988565b5b8135612beb848260208601612b5d565b91505092915050565b600067ffffffffffffffff821115612c0f57612c0e612992565b5b612c188261291c565b9050602081019050919050565b6000612c38612c3384612bf4565b6129f2565b905082815260208101848484011115612c5457612c5361298d565b5b612c5f848285612a3e565b509392505050565b600082601f830112612c7c57612c7b612988565b5b8135612c8c848260208601612c25565b91505092915050565b600080600080600060a08688031215612cb157612cb06126b9565b5b6000612cbf8882890161270c565b9550506020612cd08882890161270c565b945050604086013567ffffffffffffffff811115612cf157612cf06126be565b5b612cfd88828901612bc6565b935050606086013567ffffffffffffffff811115612d1e57612d1d6126be565b5b612d2a88828901612bc6565b925050608086013567ffffffffffffffff811115612d4b57612d4a6126be565b5b612d5788828901612c67565b9150509295509295909350565b600067ffffffffffffffff821115612d7f57612d7e612992565b5b602082029050602081019050919050565b6000612da3612d9e84612d64565b6129f2565b90508083825260208201905060208402830185811115612dc657612dc5612b58565b5b835b81811015612def5780612ddb888261270c565b845260208401935050602081019050612dc8565b5050509392505050565b600082601f830112612e0e57612e0d612988565b5b8135612e1e848260208601612d90565b91505092915050565b60008060408385031215612e3e57612e3d6126b9565b5b600083013567ffffffffffffffff811115612e5c57612e5b6126be565b5b612e6885828601612df9565b925050602083013567ffffffffffffffff811115612e8957612e886126be565b5b612e9585828601612bc6565b9150509250929050565b600081519050919050565b600082825260208201905092915050565b6000819050602082019050919050565b612ed481612721565b82525050565b6000612ee68383612ecb565b60208301905092915050565b6000602082019050919050565b6000612f0a82612e9f565b612f148185612eaa565b9350612f1f83612ebb565b8060005b83811015612f50578151612f378882612eda565b9750612f4283612ef2565b925050600181019050612f23565b5085935050505092915050565b60006020820190508181036000830152612f778184612eff565b905092915050565b600060208284031215612f9557612f946126b9565b5b600082013567ffffffffffffffff811115612fb357612fb26126be565b5b612fbf84828501612a8f565b91505092915050565b612fd1816126e3565b82525050565b6000602082019050612fec6000830184612fc8565b92915050565b612ffb81612846565b811461300657600080fd5b50565b60008135905061301881612ff2565b92915050565b60008060408385031215613035576130346126b9565b5b60006130438582860161270c565b925050602061305485828601613009565b9150509250929050565b600080600060608486031215613077576130766126b9565b5b60006130858682870161270c565b935050602061309686828701612742565b92505060406130a786828701612742565b9150509250925092565b600080604083850312156130c8576130c76126b9565b5b60006130d68582860161270c565b92505060206130e78582860161270c565b9150509250929050565b600080600080600060a0868803121561310d5761310c6126b9565b5b600061311b8882890161270c565b955050602061312c8882890161270c565b945050604061313d88828901612742565b935050606061314e88828901612742565b925050608086013567ffffffffffffffff81111561316f5761316e6126be565b5b61317b88828901612c67565b9150509295509295909350565b7f41646472657373207a65726f20697320696e76616c6964000000000000000000600082015250565b60006131be6017836128e1565b91506131c982613188565b602082019050919050565b600060208201905081810360008301526131ed816131b1565b9050919050565b7f53657420636f737420706572207469636b657421000000000000000000000000600082015250565b600061322a6014836128e1565b9150613235826131f4565b602082019050919050565b600060208201905081810360008301526132598161321d565b9050919050565b7f416d6f756e74206d7573742062652067726561746572207468616e207a65726f60008201527f2100000000000000000000000000000000000000000000000000000000000000602082015250565b60006132bc6021836128e1565b91506132c782613260565b604082019050919050565b600060208201905081810360008301526132eb816132af565b9050919050565b7f546f6b656e206973206e6f742061636365707461626c65210000000000000000600082015250565b60006133286018836128e1565b9150613333826132f2565b602082019050919050565b600060208201905081810360008301526133578161331b565b9050919050565b7f546f6b656e20616d6f756e74206d75737420626520677265617465722074686160008201527f6e207a65726f2100000000000000000000000000000000000000000000000000602082015250565b60006133ba6027836128e1565b91506133c58261335e565b604082019050919050565b600060208201905081810360008301526133e9816133ad565b9050919050565b7f4e487b7100000000000000000000000000000000000000000000000000000000600052601160045260246000fd5b600061342a82612721565b91507fffffffffffffffffffffffffffffffffffffffffffffffffffffffffffffffff820361345c5761345b6133f0565b5b600182019050919050565b600060a08201905061347c6000830188612797565b818103602083015261348e818761292d565b905061349d6040830186612fc8565b6134aa6060830185612797565b6134b76080830184612797565b9695505050505050565b60006040820190506134d66000830185612fc8565b6134e36020830184612fc8565b9392505050565b60006040820190506134ff6000830185612797565b61350c6020830184612797565b9392505050565b7f4e487b7100000000000000000000000000000000000000000000000000000000600052603260045260246000fd5b600060ff82169050919050565b61355881613542565b811461356357600080fd5b50565b6000815190506135758161354f565b92915050565b600060208284031215613591576135906126b9565b5b600061359f84828501613566565b91505092915050565b60006135b382612721565b91506135be83612721565b92508282026135cc81612721565b915082820484148315176135e3576135e26133f0565b5b5092915050565b7f4e487b7100000000000000000000000000000000000000000000000000000000600052602260045260246000fd5b6000600282049050600182168061363157607f821691505b602082108103613644576136436135ea565b5b50919050565b60008190508160005260206000209050919050565b60006020601f8301049050919050565b600082821b905092915050565b6000600883026136ac7fffffffffffffffffffffffffffffffffffffffffffffffffffffffffffffffff8261366f565b6136b6868361366f565b95508019841693508086168417925050509392505050565b6000819050919050565b60006136f36136ee6136e984612721565b6136ce565b612721565b9050919050565b6000819050919050565b61370d836136d8565b613721613719826136fa565b84845461367c565b825550505050565b600090565b613736613729565b613741818484613704565b505050565b5b818110156137655761375a60008261372e565b600181019050613747565b5050565b601f8211156137aa5761377b8161364a565b6137848461365f565b81016020851015613793578190505b6137a761379f8561365f565b830182613746565b50505b505050565b600082821c905092915050565b60006137cd600019846008026137af565b1980831691505092915050565b60006137e683836137bc565b9150826002028217905092915050565b6137ff826128d6565b67ffffffffffffffff81111561381857613817612992565b5b6138228254613619565b61382d828285613769565b600060209050601f831160018114613860576000841561384e578287015190505b61385885826137da565b8655506138c0565b601f19841661386e8661364a565b60005b8281101561389657848901518255600182019150602085019450602081019050613871565b868310156138b357848901516138af601f8916826137bc565b8355505b6001600288020188555050505b505050505050565b7f546f6b656e20646f6573206e6f74206578697374000000000000000000000000600082015250565b60006138fe6014836128e1565b9150613909826138c8565b602082019050919050565b6000602082019050818103600083015261392d816138f1565b9050919050565b7f416d6f756e74206d7573742062652067726561746572207468616e207a65726f600082015250565b600061396a6020836128e1565b915061397582613934565b602082019050919050565b600060208201905081810360008301526139998161395d565b9050919050565b600081905092915050565b600081546139b881613619565b6139c281866139a0565b945060018216600081146139dd57600181146139f257613a25565b60ff1983168652811515820286019350613a25565b6139fb8561364a565b60005b83811015613a1d578154818901526001820191506020810190506139fe565b838801955050505b50505092915050565b6000613a39826128d6565b613a4381856139a0565b9350613a538185602086016128f2565b80840191505092915050565b6000613a6b82856139ab565b9150613a778284613a2e565b91508190509392505050565b7f5365742072656365697665722077616c6c657400000000000000000000000000600082015250565b6000613ab96013836128e1565b9150613ac482613a83565b602082019050919050565b60006020820190508181036000830152613ae881613aac565b9050919050565b6000606082019050613b046000830186612fc8565b613b116020830185612fc8565b613b1e6040830184612797565b949350505050565b600081519050919050565b600082825260208201905092915050565b6000613b4d82613b26565b613b578185613b31565b9350613b678185602086016128f2565b613b708161291c565b840191505092915050565b600060a082019050613b906000830188612fc8565b613b9d6020830187612fc8565b613baa6040830186612797565b613bb76060830185612797565b8181036080830152613bc98184613b42565b90509695505050505050565b600081519050613be4816127ed565b92915050565b600060208284031215613c0057613bff6126b9565b5b6000613c0e84828501613bd5565b91505092915050565b600060a082019050613c2c6000830188612fc8565b613c396020830187612fc8565b8181036040830152613c4b8186612eff565b90508181036060830152613c5f8185612eff565b90508181036080830152613c738184613b42565b90509695505050505050565b6000613c8a82612721565b9150613c9583612721565b9250828201905080821115613cad57613cac6133f0565b5b92915050565b6000608082019050613cc86000830187612fc8565b613cd56020830186612797565b613ce26040830185612797565b613cef6060830184612797565b95945050505050565b60006040820190508181036000830152613d128185612eff565b90508181036020830152613d268184612eff565b9050939250505056fea2646970667358221220410c366249fec7fb477f039449a021ebdf7961c0fec925ea80f18a8cab2ba86964736f6c634300081c0033",
  "linkReferences": {},
  "deployedLinkReferences": {}
}